{
  "_format": "hh-sol-artifact-1",
  "contractName": "VotingFactory",
  "sourceName": "contracts/VotingFactory.sol",
  "abi": [
    {
      "inputs": [],
      "stateMutability": "nonpayable",
      "type": "constructor"
    },
    {
      "anonymous": false,
      "inputs": [
        {
          "indexed": false,
          "internalType": "address",
          "name": "votingAddress",
          "type": "address"
        }
      ],
      "name": "VotingCreated",
      "type": "event"
    },
    {
      "inputs": [],
      "name": "createVoting",
      "outputs": [],
      "stateMutability": "nonpayable",
      "type": "function"
    },
    {
      "inputs": [],
      "name": "getVotings",
      "outputs": [
        {
          "internalType": "address[]",
          "name": "",
          "type": "address[]"
        }
      ],
      "stateMutability": "view",
      "type": "function"
    },
    {
      "inputs": [],
      "name": "owner",
      "outputs": [
        {
          "internalType": "address",
          "name": "",
          "type": "address"
        }
      ],
      "stateMutability": "view",
      "type": "function"
    },
    {
      "inputs": [
        {
          "internalType": "uint256",
          "name": "",
          "type": "uint256"
        }
      ],
      "name": "votings",
      "outputs": [
        {
          "internalType": "address",
          "name": "",
          "type": "address"
        }
      ],
      "stateMutability": "view",
      "type": "function"
    }
  ],
  "bytecode": "0x608060405234801561001057600080fd5b5033600160006101000a81548173ffffffffffffffffffffffffffffffffffffffff021916908373ffffffffffffffffffffffffffffffffffffffff160217905550612eb3806100616000396000f3fe608060405234801561001057600080fd5b506004361061004c5760003560e01c806305c1112d146100515780633c5663df1461006f5780638da5cb5b14610079578063a598d03c14610097575b600080fd5b6100596100c7565b604051610066919061041c565b60405180910390f35b610077610155565b005b6100816102ba565b60405161008e919061044d565b60405180910390f35b6100b160048036038101906100ac91906104a3565b6102e0565b6040516100be919061044d565b60405180910390f35b6060600080548060200260200160405190810160405280929190818152602001828054801561014b57602002820191906000526020600020905b8160009054906101000a900473ffffffffffffffffffffffffffffffffffffffff1673ffffffffffffffffffffffffffffffffffffffff1681526020019060010190808311610101575b5050505050905090565b600160009054906101000a900473ffffffffffffffffffffffffffffffffffffffff1673ffffffffffffffffffffffffffffffffffffffff163373ffffffffffffffffffffffffffffffffffffffff16146101e5576040517f08c379a00000000000000000000000000000000000000000000000000000000081526004016101dc90610553565b60405180910390fd5b6000336040516101f49061031f565b6101fe919061044d565b604051809103906000f08015801561021a573d6000803e3d6000fd5b5090506000819080600181540180825580915050600190039060005260206000200160009091909190916101000a81548173ffffffffffffffffffffffffffffffffffffffff021916908373ffffffffffffffffffffffffffffffffffffffff1602179055507f8d59e26d1a30e4599d9266c3cc51905634249f88e542c997ce6769cf0c91e1db816040516102af919061044d565b60405180910390a150565b600160009054906101000a900473ffffffffffffffffffffffffffffffffffffffff1681565b600081815481106102f057600080fd5b906000526020600020016000915054906101000a900473ffffffffffffffffffffffffffffffffffffffff1681565b61290a8061057483390190565b600081519050919050565b600082825260208201905092915050565b6000819050602082019050919050565b600073ffffffffffffffffffffffffffffffffffffffff82169050919050565b600061038382610358565b9050919050565b61039381610378565b82525050565b60006103a5838361038a565b60208301905092915050565b6000602082019050919050565b60006103c98261032c565b6103d38185610337565b93506103de83610348565b8060005b8381101561040f5781516103f68882610399565b9750610401836103b1565b9250506001810190506103e2565b5085935050505092915050565b6000602082019050818103600083015261043681846103be565b905092915050565b61044781610378565b82525050565b6000602082019050610462600083018461043e565b92915050565b600080fd5b6000819050919050565b6104808161046d565b811461048b57600080fd5b50565b60008135905061049d81610477565b92915050565b6000602082840312156104b9576104b8610468565b5b60006104c78482850161048e565b91505092915050565b600082825260208201905092915050565b7f4f6e6c79206f776e65722063616e20657865637574652074686973206f70657260008201527f6174696f6e000000000000000000000000000000000000000000000000000000602082015250565b600061053d6025836104d0565b9150610548826104e1565b604082019050919050565b6000602082019050818103600083015261056c81610530565b905091905056fe60806040523480156200001157600080fd5b506040516200290a3803806200290a833981810160405281019062000037919062000104565b80600560006101000a81548173ffffffffffffffffffffffffffffffffffffffff021916908373ffffffffffffffffffffffffffffffffffffffff1602179055506000600760006101000a81548160ff0219169083151502179055505062000136565b600080fd5b600073ffffffffffffffffffffffffffffffffffffffff82169050919050565b6000620000cc826200009f565b9050919050565b620000de81620000bf565b8114620000ea57600080fd5b50565b600081519050620000fe81620000d3565b92915050565b6000602082840312156200011d576200011c6200009a565b5b60006200012d84828501620000ed565b91505092915050565b6127c480620001466000396000f3fe608060405234801561001057600080fd5b50600436106101165760003560e01c806383d948b7116100a2578063ad71f8dc11610071578063ad71f8dc146102ff578063c0f2a7771461031b578063cfcb049d14610339578063d83b2c0514610369578063dd0e23731461039957610116565b806383d948b71461025d5780638da5cb5b1461027b5780639e6adbc414610299578063a3ec138d146102c957610116565b806331812070116100e9578063318120701461018f5780633477ee2e146101bf57806335b8e820146101f25780633d2f5bda146102255780635ed5d2c31461024157610116565b80630121b93f1461011b578063119d4ddb146101375780631ea736e0146101535780632d35a8a214610171575b600080fd5b610135600480360381019061013091906117b4565b6103c9565b005b610151600480360381019061014c919061183f565b610680565b005b61015b610835565b604051610168919061187b565b60405180910390f35b61017961083b565b604051610186919061187b565b60405180910390f35b6101a960048036038101906101a4919061183f565b610841565b6040516101b691906118b1565b60405180910390f35b6101d960048036038101906101d491906117b4565b61089a565b6040516101e9949392919061195c565b60405180910390f35b61020c600480360381019061020791906117b4565b610a62565b60405161021c949392919061195c565b60405180910390f35b61023f600480360381019061023a91906117b4565b610cb2565b005b61025b60048036038101906102569190611aeb565b610dfb565b005b6102656110d5565b60405161027291906118b1565b60405180910390f35b6102836110e8565b6040516102909190611c01565b60405180910390f35b6102b360048036038101906102ae9190611c1c565b61110e565b6040516102c091906118b1565b60405180910390f35b6102e360048036038101906102de919061183f565b611185565b6040516102f69796959493929190611c65565b60405180910390f35b61031960048036038101906103149190611cf7565b611489565b005b610323611646565b604051610330919061187b565b60405180910390f35b610353600480360381019061034e9190611c1c565b611653565b6040516103609190611c01565b60405180910390f35b610383600480360381019061037e91906117b4565b61169c565b6040516103909190611c01565b60405180910390f35b6103b360048036038101906103ae91906117b4565b61172b565b6040516103c09190611c01565b60405180910390f35b600760009054906101000a900460ff16610418576040517f08c379a000000000000000000000000000000000000000000000000000000000815260040161040f90611dea565b60405180910390fd5b600654421061045c576040517f08c379a000000000000000000000000000000000000000000000000000000000815260040161045390611e56565b60405180910390fd5b600160003373ffffffffffffffffffffffffffffffffffffffff1673ffffffffffffffffffffffffffffffffffffffff16815260200190815260200160002060050160009054906101000a900460ff166104eb576040517f08c379a00000000000000000000000000000000000000000000000000000000081526004016104e290611ec2565b60405180910390fd5b600160003373ffffffffffffffffffffffffffffffffffffffff1673ffffffffffffffffffffffffffffffffffffffff16815260200190815260200160002060050160019054906101000a900460ff161561057b576040517f08c379a000000000000000000000000000000000000000000000000000000000815260040161057290611f2e565b60405180910390fd5b60045481106105bf576040517f08c379a00000000000000000000000000000000000000000000000000000000081526004016105b690611f9a565b60405180910390fd5b60018060003373ffffffffffffffffffffffffffffffffffffffff1673ffffffffffffffffffffffffffffffffffffffff16815260200190815260200160002060050160016101000a81548160ff021916908315150217905550600080828152602001908152602001600020600301600081548092919061063f90611fe9565b91905055507fa36cc2bebb74db33e9f88110a07ef56e1b31b24b4c4f51b54b1664266e29f45b3382604051610675929190612031565b60405180910390a150565b600560009054906101000a900473ffffffffffffffffffffffffffffffffffffffff1673ffffffffffffffffffffffffffffffffffffffff163373ffffffffffffffffffffffffffffffffffffffff1614610710576040517f08c379a0000000000000000000000000000000000000000000000000000000008152600401610707906120cc565b60405180910390fd5b6000600160008373ffffffffffffffffffffffffffffffffffffffff1673ffffffffffffffffffffffffffffffffffffffff168152602001908152602001600020600001805461075f9061211b565b9050036107a1576040517f08c379a000000000000000000000000000000000000000000000000000000000815260040161079890612198565b60405180910390fd5b60018060008373ffffffffffffffffffffffffffffffffffffffff1673ffffffffffffffffffffffffffffffffffffffff16815260200190815260200160002060050160006101000a81548160ff0219169083151502179055507f85e209912e11195144f49695f608785c8a31876f9d5d831813c396126a21b4848160405161082a9190611c01565b60405180910390a150565b60065481565b60045481565b6000600160008373ffffffffffffffffffffffffffffffffffffffff1673ffffffffffffffffffffffffffffffffffffffff16815260200190815260200160002060050160009054906101000a900460ff169050919050565b60006020528060005260406000206000915090508060000180546108bd9061211b565b80601f01602080910402602001604051908101604052809291908181526020018280546108e99061211b565b80156109365780601f1061090b57610100808354040283529160200191610936565b820191906000526020600020905b81548152906001019060200180831161091957829003601f168201915b50505050509080600101805461094b9061211b565b80601f01602080910402602001604051908101604052809291908181526020018280546109779061211b565b80156109c45780601f10610999576101008083540402835291602001916109c4565b820191906000526020600020905b8154815290600101906020018083116109a757829003601f168201915b5050505050908060020180546109d99061211b565b80601f0160208091040260200160405190810160405280929190818152602001828054610a059061211b565b8015610a525780601f10610a2757610100808354040283529160200191610a52565b820191906000526020600020905b815481529060010190602001808311610a3557829003601f168201915b5050505050908060030154905084565b606080606060006004548510610aad576040517f08c379a0000000000000000000000000000000000000000000000000000000008152600401610aa490612204565b60405180910390fd5b6000806000878152602001908152602001600020604051806080016040529081600082018054610adc9061211b565b80601f0160208091040260200160405190810160405280929190818152602001828054610b089061211b565b8015610b555780601f10610b2a57610100808354040283529160200191610b55565b820191906000526020600020905b815481529060010190602001808311610b3857829003601f168201915b50505050508152602001600182018054610b6e9061211b565b80601f0160208091040260200160405190810160405280929190818152602001828054610b9a9061211b565b8015610be75780601f10610bbc57610100808354040283529160200191610be7565b820191906000526020600020905b815481529060010190602001808311610bca57829003601f168201915b50505050508152602001600282018054610c009061211b565b80601f0160208091040260200160405190810160405280929190818152602001828054610c2c9061211b565b8015610c795780601f10610c4e57610100808354040283529160200191610c79565b820191906000526020600020905b815481529060010190602001808311610c5c57829003601f168201915b50505050508152602001600382015481525050905080600001518160200151826040015183606001519450945094509450509193509193565b600560009054906101000a900473ffffffffffffffffffffffffffffffffffffffff1673ffffffffffffffffffffffffffffffffffffffff163373ffffffffffffffffffffffffffffffffffffffff1614610d42576040517f08c379a0000000000000000000000000000000000000000000000000000000008152600401610d39906120cc565b60405180910390fd5b600760009054906101000a900460ff1615610d92576040517f08c379a0000000000000000000000000000000000000000000000000000000008152600401610d8990612270565b60405180910390fd5b8042610d9e9190612290565b6006819055506001600760006101000a81548160ff0219169083151502179055507fcf33babc496bb6dc2942b39cb7b75766bbbadf7da50d176ff8c513e991140239600654604051610df0919061187b565b60405180910390a150565b600073ffffffffffffffffffffffffffffffffffffffff16600285604051610e239190612300565b908152602001604051809103902060009054906101000a900473ffffffffffffffffffffffffffffffffffffffff1673ffffffffffffffffffffffffffffffffffffffff1614610ea8576040517f08c379a0000000000000000000000000000000000000000000000000000000008152600401610e9f90612389565b60405180910390fd5b6040518060e0016040528086815260200185815260200184815260200183815260200182815260200160001515815260200160001515815250600160003373ffffffffffffffffffffffffffffffffffffffff1673ffffffffffffffffffffffffffffffffffffffff1681526020019081526020016000206000820151816000019081610f359190612555565b506020820151816001019081610f4b9190612555565b506040820151816002019081610f619190612555565b506060820151816003019081610f779190612555565b506080820151816004019081610f8d9190612555565b5060a08201518160050160006101000a81548160ff02191690831515021790555060c08201518160050160016101000a81548160ff0219169083151502179055509050506003339080600181540180825580915050600190039060005260206000200160009091909190916101000a81548173ffffffffffffffffffffffffffffffffffffffff021916908373ffffffffffffffffffffffffffffffffffffffff160217905550336002856040516110459190612300565b908152602001604051809103902060006101000a81548173ffffffffffffffffffffffffffffffffffffffff021916908373ffffffffffffffffffffffffffffffffffffffff1602179055507ff905e12dedf8b52b886d4f6fa367677b7b02bd1dedeb4d3867a63e345ac7f8f0338686866040516110c69493929190612627565b60405180910390a15050505050565b600760009054906101000a900460ff1681565b600560009054906101000a900473ffffffffffffffffffffffffffffffffffffffff1681565b60008073ffffffffffffffffffffffffffffffffffffffff166002836040516111379190612300565b908152602001604051809103902060009054906101000a900473ffffffffffffffffffffffffffffffffffffffff1673ffffffffffffffffffffffffffffffffffffffff1614159050919050565b60016020528060005260406000206000915090508060000180546111a89061211b565b80601f01602080910402602001604051908101604052809291908181526020018280546111d49061211b565b80156112215780601f106111f657610100808354040283529160200191611221565b820191906000526020600020905b81548152906001019060200180831161120457829003601f168201915b5050505050908060010180546112369061211b565b80601f01602080910402602001604051908101604052809291908181526020018280546112629061211b565b80156112af5780601f10611284576101008083540402835291602001916112af565b820191906000526020600020905b81548152906001019060200180831161129257829003601f168201915b5050505050908060020180546112c49061211b565b80601f01602080910402602001604051908101604052809291908181526020018280546112f09061211b565b801561133d5780601f106113125761010080835404028352916020019161133d565b820191906000526020600020905b81548152906001019060200180831161132057829003601f168201915b5050505050908060030180546113529061211b565b80601f016020809104026020016040519081016040528092919081815260200182805461137e9061211b565b80156113cb5780601f106113a0576101008083540402835291602001916113cb565b820191906000526020600020905b8154815290600101906020018083116113ae57829003601f168201915b5050505050908060040180546113e09061211b565b80601f016020809104026020016040519081016040528092919081815260200182805461140c9061211b565b80156114595780601f1061142e57610100808354040283529160200191611459565b820191906000526020600020905b81548152906001019060200180831161143c57829003601f168201915b5050505050908060050160009054906101000a900460ff16908060050160019054906101000a900460ff16905087565b600560009054906101000a900473ffffffffffffffffffffffffffffffffffffffff1673ffffffffffffffffffffffffffffffffffffffff163373ffffffffffffffffffffffffffffffffffffffff1614611519576040517f08c379a0000000000000000000000000000000000000000000000000000000008152600401611510906120cc565b60405180910390fd5b600760009054906101000a900460ff1615611569576040517f08c379a0000000000000000000000000000000000000000000000000000000008152600401611560906126f3565b60405180910390fd5b60405180608001604052808481526020018381526020018281526020016000815250600080600454815260200190815260200160002060008201518160000190816115b49190612555565b5060208201518160010190816115ca9190612555565b5060408201518160020190816115e09190612555565b50606082015181600301559050506004600081548092919061160190611fe9565b91905055507fa620e116e8168f7281127a47ac04518b6fbd8b07cd150397e6e3e56127ce48cf83838360405161163993929190612713565b60405180910390a1505050565b6000600380549050905090565b6002818051602081018201805184825260208301602085012081835280955050505050506000915054906101000a900473ffffffffffffffffffffffffffffffffffffffff1681565b600060038054905082106116e5576040517f08c379a00000000000000000000000000000000000000000000000000000000081526004016116dc90612204565b60405180910390fd5b600382815481106116f9576116f861275f565b5b9060005260206000200160009054906101000a900473ffffffffffffffffffffffffffffffffffffffff169050919050565b6003818154811061173b57600080fd5b906000526020600020016000915054906101000a900473ffffffffffffffffffffffffffffffffffffffff1681565b6000604051905090565b600080fd5b600080fd5b6000819050919050565b6117918161177e565b811461179c57600080fd5b50565b6000813590506117ae81611788565b92915050565b6000602082840312156117ca576117c9611774565b5b60006117d88482850161179f565b91505092915050565b600073ffffffffffffffffffffffffffffffffffffffff82169050919050565b600061180c826117e1565b9050919050565b61181c81611801565b811461182757600080fd5b50565b60008135905061183981611813565b92915050565b60006020828403121561185557611854611774565b5b60006118638482850161182a565b91505092915050565b6118758161177e565b82525050565b6000602082019050611890600083018461186c565b92915050565b60008115159050919050565b6118ab81611896565b82525050565b60006020820190506118c660008301846118a2565b92915050565b600081519050919050565b600082825260208201905092915050565b60005b838110156119065780820151818401526020810190506118eb565b60008484015250505050565b6000601f19601f8301169050919050565b600061192e826118cc565b61193881856118d7565b93506119488185602086016118e8565b61195181611912565b840191505092915050565b600060808201905081810360008301526119768187611923565b9050818103602083015261198a8186611923565b9050818103604083015261199e8185611923565b90506119ad606083018461186c565b95945050505050565b600080fd5b600080fd5b7f4e487b7100000000000000000000000000000000000000000000000000000000600052604160045260246000fd5b6119f882611912565b810181811067ffffffffffffffff82111715611a1757611a166119c0565b5b80604052505050565b6000611a2a61176a565b9050611a3682826119ef565b919050565b600067ffffffffffffffff821115611a5657611a556119c0565b5b611a5f82611912565b9050602081019050919050565b82818337600083830152505050565b6000611a8e611a8984611a3b565b611a20565b905082815260208101848484011115611aaa57611aa96119bb565b5b611ab5848285611a6c565b509392505050565b600082601f830112611ad257611ad16119b6565b5b8135611ae2848260208601611a7b565b91505092915050565b600080600080600060a08688031215611b0757611b06611774565b5b600086013567ffffffffffffffff811115611b2557611b24611779565b5b611b3188828901611abd565b955050602086013567ffffffffffffffff811115611b5257611b51611779565b5b611b5e88828901611abd565b945050604086013567ffffffffffffffff811115611b7f57611b7e611779565b5b611b8b88828901611abd565b935050606086013567ffffffffffffffff811115611bac57611bab611779565b5b611bb888828901611abd565b925050608086013567ffffffffffffffff811115611bd957611bd8611779565b5b611be588828901611abd565b9150509295509295909350565b611bfb81611801565b82525050565b6000602082019050611c166000830184611bf2565b92915050565b600060208284031215611c3257611c31611774565b5b600082013567ffffffffffffffff811115611c5057611c4f611779565b5b611c5c84828501611abd565b91505092915050565b600060e0820190508181036000830152611c7f818a611923565b90508181036020830152611c938189611923565b90508181036040830152611ca78188611923565b90508181036060830152611cbb8187611923565b90508181036080830152611ccf8186611923565b9050611cde60a08301856118a2565b611ceb60c08301846118a2565b98975050505050505050565b600080600060608486031215611d1057611d0f611774565b5b600084013567ffffffffffffffff811115611d2e57611d2d611779565b5b611d3a86828701611abd565b935050602084013567ffffffffffffffff811115611d5b57611d5a611779565b5b611d6786828701611abd565b925050604084013567ffffffffffffffff811115611d8857611d87611779565b5b611d9486828701611abd565b9150509250925092565b7f566f74696e6720686173206e6f74207374617274656420796574000000000000600082015250565b6000611dd4601a836118d7565b9150611ddf82611d9e565b602082019050919050565b60006020820190508181036000830152611e0381611dc7565b9050919050565b7f566f74696e6720706572696f642068617320656e646564000000000000000000600082015250565b6000611e406017836118d7565b9150611e4b82611e0a565b602082019050919050565b60006020820190508181036000830152611e6f81611e33565b9050919050565b7f566f746572206e6f7420617070726f7665640000000000000000000000000000600082015250565b6000611eac6012836118d7565b9150611eb782611e76565b602082019050919050565b60006020820190508181036000830152611edb81611e9f565b9050919050565b7f566f7465722068617320616c726561647920766f746564000000000000000000600082015250565b6000611f186017836118d7565b9150611f2382611ee2565b602082019050919050565b60006020820190508181036000830152611f4781611f0b565b9050919050565b7f496e76616c69642063616e64696461746520696e646578000000000000000000600082015250565b6000611f846017836118d7565b9150611f8f82611f4e565b602082019050919050565b60006020820190508181036000830152611fb381611f77565b9050919050565b7f4e487b7100000000000000000000000000000000000000000000000000000000600052601160045260246000fd5b6000611ff48261177e565b91507fffffffffffffffffffffffffffffffffffffffffffffffffffffffffffffffff820361202657612025611fba565b5b600182019050919050565b60006040820190506120466000830185611bf2565b612053602083018461186c565b9392505050565b7f4f6e6c79206f776e65722063616e20657865637574652074686973206f70657260008201527f6174696f6e000000000000000000000000000000000000000000000000000000602082015250565b60006120b66025836118d7565b91506120c18261205a565b604082019050919050565b600060208201905081810360008301526120e5816120a9565b9050919050565b7f4e487b7100000000000000000000000000000000000000000000000000000000600052602260045260246000fd5b6000600282049050600182168061213357607f821691505b602082108103612146576121456120ec565b5b50919050565b7f566f746572206e6f742072656769737465726564000000000000000000000000600082015250565b60006121826014836118d7565b915061218d8261214c565b602082019050919050565b600060208201905081810360008301526121b181612175565b9050919050565b7f496e646578206f7574206f6620626f756e647300000000000000000000000000600082015250565b60006121ee6013836118d7565b91506121f9826121b8565b602082019050919050565b6000602082019050818103600083015261221d816121e1565b9050919050565b7f566f74696e672068617320616c72656164792073746172746564000000000000600082015250565b600061225a601a836118d7565b915061226582612224565b602082019050919050565b600060208201905081810360008301526122898161224d565b9050919050565b600061229b8261177e565b91506122a68361177e565b92508282019050808211156122be576122bd611fba565b5b92915050565b600081905092915050565b60006122da826118cc565b6122e481856122c4565b93506122f48185602086016118e8565b80840191505092915050565b600061230c82846122cf565b915081905092915050565b7f566f746572207769746820746869732043494e20616c7265616479207265676960008201527f7374657265640000000000000000000000000000000000000000000000000000602082015250565b60006123736026836118d7565b915061237e82612317565b604082019050919050565b600060208201905081810360008301526123a281612366565b9050919050565b60008190508160005260206000209050919050565b60006020601f8301049050919050565b600082821b905092915050565b60006008830261240b7fffffffffffffffffffffffffffffffffffffffffffffffffffffffffffffffff826123ce565b61241586836123ce565b95508019841693508086168417925050509392505050565b6000819050919050565b600061245261244d6124488461177e565b61242d565b61177e565b9050919050565b6000819050919050565b61246c83612437565b61248061247882612459565b8484546123db565b825550505050565b600090565b612495612488565b6124a0818484612463565b505050565b5b818110156124c4576124b960008261248d565b6001810190506124a6565b5050565b601f821115612509576124da816123a9565b6124e3846123be565b810160208510156124f2578190505b6125066124fe856123be565b8301826124a5565b50505b505050565b600082821c905092915050565b600061252c6000198460080261250e565b1980831691505092915050565b6000612545838361251b565b9150826002028217905092915050565b61255e826118cc565b67ffffffffffffffff811115612577576125766119c0565b5b612581825461211b565b61258c8282856124c8565b600060209050601f8311600181146125bf57600084156125ad578287015190505b6125b78582612539565b86555061261f565b601f1984166125cd866123a9565b60005b828110156125f5578489015182556001820191506020850194506020810190506125d0565b86831015612612578489015161260e601f89168261251b565b8355505b6001600288020188555050505b505050505050565b600060808201905061263c6000830187611bf2565b818103602083015261264e8186611923565b905081810360408301526126628185611923565b905081810360608301526126768184611923565b905095945050505050565b7f43616e6e6f74206164642063616e6469646174657320616674657220766f746960008201527f6e67206861732073746172746564000000000000000000000000000000000000602082015250565b60006126dd602e836118d7565b91506126e882612681565b604082019050919050565b6000602082019050818103600083015261270c816126d0565b9050919050565b6000606082019050818103600083015261272d8186611923565b905081810360208301526127418185611923565b905081810360408301526127558184611923565b9050949350505050565b7f4e487b7100000000000000000000000000000000000000000000000000000000600052603260045260246000fdfea264697066735822122034b4417cadb30edd1fb6491e940f332eb607467f3afc476ecc7eb4717bd4d4a864736f6c63430008180033a264697066735822122053ef569e496992aa40642ed7a6d509a10dcbcf8b24e61d95497325184be3d39a64736f6c63430008180033",
  "linkReferences": {},
  "deployedLinkReferences": {}
}